:020000040000FA
:100000000C94DD000C94AC030C9485030C94050156
:100010000C9405010C9405010C9405010C94050148
:100020000C9405010C9405010C9405010C94050138
:100030000C9405010C9405010C9405010C94050128
:100040000C943B030C9405010C94F9030C94D3031A
:100050000C9405010C9405010C9405010C94050108
:100060000C9405010C9405012D2D2D2D2D2D2D2DDC
:100070002D2D2D2D2D2D2D2D2D2D2D2D2D2D2D2DB0
:100080002D2D2D2D2D2D2D2D2D2D0053455455501D
:100090003A2044696D6D6572205365747570204314
:1000A0006F6D706C6574652E002D2D2D20456E646E
:1000B00020436F6E66696775726174696F6E202D7B
:1000C0002D2D0020487A00414320467265717565E8
:1000D0006E63793A20002D2D2D20436F6E6669677F
:1000E00075726174696F6E202D2D2D002D2D2D2DB3
:1000F0002D2D2D2D2D2D2D2D2D2D2D2D2D2D2D2D30
:100100002D2D2D2D2D2D2D2D2D2D2D2D2D2D004435
:10011000696D6D65722053657475702053746172DA
:10012000742E2E2E20002D2D2D2D2D2D2D2D2D2DEF
:100130002D2D2D2D2D2D2D2D2D2D2D2D2D2D2D2DEF
:100140002D2D2D2D2D2D2D2D00207C204E65772041
:10015000706F74656E74696F6D6574657220766119
:100160006C7565203A200000000000240027002A5A
:100170000000000000250028002B000404040404F3
:100180000404040202020202020303030303030144
:10019000020408102040800102040810200102041B
:1001A00008102000000008000201000003040700FE
:1001B0000000000000000000600511241FBECFEF0A
:1001C000D8E0DEBFCDBF11E0A0E0B1E0E8EEFBE09B
:1001D00002C005900D92AA31B107D9F721E0AAE13A
:1001E000B1E001C01D92A53CB207E1F710E0CDEDF2
:1001F000D0E004C02197FE010E94EC05CC3DD10760
:10020000C9F70E942B040C94F2050C940000EAEA52
:10021000F1E02491E6E9F1E09491E2E8F1E0E49183
:10022000EE23C9F0222339F0233001F1A8F4213064
:1002300019F1223029F1F0E0EE0FFF1FEF58FE4FC9
:10024000A591B4912FB7F894EC91811126C09095A7
:100250009E239C932FBF08952730A9F02830C9F022
:10026000243049F7209180002F7D03C02091800029
:100270002F7720938000DFCF24B52F7724BDDBCFED
:1002800024B52F7DFBCF2091B0002F772093B000B5
:10029000D2CF2091B0002F7DF9CF9E2BDACFCF9314
:1002A000DF9390E0FC01E157FE4F249185589E4F6B
:1002B000FC0184918823C9F090E0880F991FFC010C
:1002C000E959FE4FA591B491FC01EF58FE4FC5913D
:1002D000D49161110DC09FB7F8948C912095822321
:1002E0008C938881282328839FBFDF91CF91089525
:1002F000623051F49FB7F8943C91822F809583230C
:100300008C93E8812E2BEFCF8FB7F894EC912E2BA6
:100310002C938FBFEACF81E080931E01089508954A
:10032000AF92BF92CF92DF92EF92FF920F931F9303
:10033000CF93DF936C017B018B01040F151FEB0141
:100340005E01AE18BF08C017D10759F06991D601F8
:10035000ED91FC910190F081E02DC6010995892B6A
:1003600079F7C501DF91CF911F910F91FF90EF9029
:10037000DF90CF90BF90AF900895FC01538D448DD6
:10038000252F30E0842F90E0821B930B541710F040
:10039000CF96089501970895FC01918D828D98174D
:1003A00061F0A28DAE0FBF2FB11D5D968C91928D25
:1003B0009F5F9F73928F90E008958FEF9FEF089556
:1003C000FC01918D828D981731F0828DE80FF11D1F
:1003D000858D90E008958FEF9FEF0895FC01918D3A
:1003E000228D892F90E0805C9F4F821B91098F7333
:1003F0009927089588E291E00E94EE0121E0892B7F
:1004000009F420E0822F089580E090E0892B29F004
:100410000E94FA0181110C9400000895FC01A48D42
:10042000A80FB92FB11DA35ABF4F2C91848D90E016
:1004300001968F739927848FA689B7892C93A089F9
:10044000B1898C91837080648C93938D848D981383
:1004500006C00288F389E02D80818F7D8083089516
:10046000EF92FF920F931F93CF93DF93EC0181E004
:10047000888F9B8D8C8D98131AC0E889F9898081AB
:1004800085FF15C09FB7F894EE89FF896083E889DE
:10049000F98980818370806480839FBF81E090E0D0
:1004A000DF91CF911F910F91FF90EF900895F62E5D
:1004B0000B8D10E00F5F1F4F0F731127E02E8C8DF7
:1004C0008E110CC00FB607FCFACFE889F98980813C
:1004D00085FFF5CFCE010E940E02F1CFEB8DEC0F20
:1004E000FD2FF11DE35AFF4FF0829FB7F8940B8F59
:1004F000EA89FB8980818062CFCF0F931F93CF93CE
:10050000DF938C01D0E0C0E0F801EC0FFD1F649197
:10051000662341F088E291E00E943002892B11F0BD
:100520002196F2CFCE01DF91CF911F910F910895C7
:10053000CF93DF93EC01888D8823B9F0AA89BB891A
:10054000E889F9898C9185FD03C0808186FD0DC005
:100550000FB607FCF7CF8C9185FFF2CF808185FF26
:10056000EDCFCE010E940E02E9CFDF91CF91089529
:100570008F929F92AF92BF920F931F93CF93DF936F
:10058000CDB7DEB7A1970FB6F894DEBF0FBECDBFD3
:1005900019A2423008F44AE08E010F5D1F4F842EED
:1005A000912CB12CA12CA50194010E94AC05E62F41
:1005B000B901CA01EA3044F5E05DD801EE938D013E
:1005C000232B242B252B79F790E080E0109769F0FE
:1005D000FD0101900020E9F73197AF014A1B5B0B49
:1005E000BD0188E291E00E949001A1960FB6F894B7
:1005F000DEBF0FBECDBFDF91CF911F910F91BF9096
:10060000AF909F908F900895E95CD7CFCF92DF9203
:10061000EF92FF92CF93DF936B017C016DE288E252
:1006200091E00E943002EC0166277727CB016C191C
:100630007D098E099F094AE00E94B8028C0F9D1F18
:10064000DF91CF91FF90EF90DF90CF90089542E03F
:1006500050E066E171E088E291E00C949001CF9364
:10066000DF930E947D02EC010E9427038C0F9D1FE7
:10067000DF91CF9108951F920F920FB60F92112420
:100680002F933F938F939F93AF93BF9380912401B8
:1006900090912501A0912601B0912701309123016D
:1006A00023E0230F2D3758F50196A11DB11D20938E
:1006B00023018093240190932501A0932601B093F8
:1006C000270180911F0190912001A0912101B091FB
:1006D00022010196A11DB11D80931F01909320015D
:1006E000A0932101B0932201BF91AF919F918F916F
:1006F0003F912F910F900FBE0F901F90189526E8F5
:10070000230F0296A11DB11DD2CF1F920F920FB6DB
:100710000F9211242F933F934F935F936F937F9387
:100720008F939F93AF93BF93EF93FF93E091020159
:10073000F09103010995FF91EF91BF91AF919F91C6
:100740008F917F916F915F914F913F912F910F907A
:100750000FBE0F901F9018951F920F920FB60F9219
:1007600011242F933F934F935F936F937F938F93B6
:100770009F93AF93BF93EF93FF93E0910001F091AC
:1007800001010995FF91EF91BF91AF919F918F91D9
:100790007F916F915F914F913F912F910F900FBE7D
:1007A0000F901F9018951F920F920FB60F92112461
:1007B0002F933F934F935F936F937F938F939F9369
:1007C000AF93BF93EF93FF9388E291E00E940E02F4
:1007D000FF91EF91BF91AF919F918F917F916F9119
:1007E0005F914F913F912F910F900FBE0F901F90EF
:1007F00018951F920F920FB60F9211242F938F937B
:100800009F93EF93FF93E0913801F091390180813C
:10081000E0913E01F0913F0182FD1BC090818091EB
:1008200041018F5F8F7320914201821741F0E09167
:100830004101F0E0E85DFE4F958F80934101FF910B
:10084000EF919F918F912F910F900FBE0F901F905E
:1008500018958081F4CF789484B5826084BD84B586
:10086000816084BD85B5826085BD85B5816085BDAB
:1008700080916E00816080936E0010928100809163
:1008800081008260809381008091810081608093EB
:100890008100809180008160809380008091B10010
:1008A00084608093B1008091B00081608093B0003B
:1008B00080917A00846080937A0080917A008260CF
:1008C00080937A0080917A00816080937A00809191
:1008D0007A00806880937A001092C100E09138011C
:1008E000F091390182E08083E0913401F09135018B
:1008F0001082E0913601F09137018FEC80831092E5
:100900004001E0913C01F0913D0186E08083E0915F
:100910003A01F0913B01808180618083E0913A014E
:10092000F0913B01808188608083E0913A01F091F1
:100930003B01808180688083E0913A01F0913B0126
:1009400080818F7D808386E291E00E942F038FE07B
:1009500091E00E942F038CEE90E00E942F0360E054
:100960008EE00E944F0162E082E00E944F0161E050
:1009700087E00E944F0180E00E9407018BE891E030
:1009800090930101809300018091690083608093BE
:100990006900E89A86ED90E00E942F0387EC90E0D2
:1009A0000E947D024AE062E370E080E090E00E94F5
:1009B000B80283EC90E00E942F0389EA90E00E9445
:1009C0002F038BE890E00E947D0288E690E00E9471
:1009D0002F0390E4B92ECC24CA9423E0D22EE12C2C
:1009E000F12C03E210E0C0E0D0E080911E018823EA
:1009F00009F457C010921E01B0927C0080917A00D9
:100A0000806480937A0080917A0086FDFCCF80908C
:100A100078009090790090921D0180921C01809145
:100A20001A0190911B0188159905B1F089E491E0B4
:100A30000E947D02B401990C880B990B97FF3CC072
:100A40000E9406030E94270380911C0190911D01C2
:100A500090931B0180931A0120911C0130911D017C
:100A6000ACE9B6EE0E94DD05A70196010E948D0556
:100A7000205C304E4F4F5F4F2230310548F0220F3F
:100A8000331F220F331F25503109C9010197F1F798
:100A900081E00E940701C8010197F1F780E00E9400
:100AA0000701209709F4A1CF0E94FA01882309F4D5
:100AB0009CCF0E94000099CF4AE00E94B802C2CFAA
:100AC000E8E2F1E01382128288EE93E0A0E0B0E069
:100AD00084839583A683B78388E091E091838083A4
:100AE00085EC90E09587848784EC90E097878687F3
:100AF00080EC90E0918B808B81EC90E0938B828BEB
:100B000082EC90E0958B848B86EC90E0978B868BC3
:100B1000118E128E138E148E0895052E97FB1EF4DF
:100B200000940E94A40557FD07D00E94AC0507FC65
:100B300003D04EF40C94A405509540953095219522
:100B40003F4F4F4F5F4F08959095809570956195F9
:100B50007F4F8F4F9F4F0895A1E21A2EAA1BBB1BF8
:100B6000FD010DC0AA1FBB1FEE1FFF1FA217B30779
:100B7000E407F50720F0A21BB30BE40BF50B661F8F
:100B8000771F881F991F1A9469F760957095809553
:100B900090959B01AC01BD01CF010895A29FB001CA
:100BA000B39FC001A39F700D811D1124911DB29FA1
:100BB000700D811D1124911D08950E94CE053323CF
:100BC00012F48A1B9B0B0C94E7050E94CE05B7FF1D
:100BD0000895821B930B0895EE0FFF1F0590F4916B
:100BE000E02D0994F894FFCF8F018F0100000000E1
:100BF00030029001BD019802EE01CC01E0010D0A26
:020C00000000F2
:107E0000112484B714BE81FFF0D085E080938100F7
:107E100082E08093C00088E18093C10086E0809377
:107E2000C20080E18093C4008EE0C9D0259A86E02C
:107E300020E33CEF91E0309385002093840096BBD3
:107E4000B09BFECF1D9AA8958150A9F7CC24DD24C4
:107E500088248394B5E0AB2EA1E19A2EF3E0BF2EE7
:107E6000A2D0813461F49FD0082FAFD0023811F036
:107E7000013811F484E001C083E08DD089C08234E0
:107E800011F484E103C0853419F485E0A6D080C0E4
:107E9000853579F488D0E82EFF2485D0082F10E0AE
:107EA000102F00270E291F29000F111F8ED06801E7
:107EB0006FC0863521F484E090D080E0DECF843638
:107EC00009F040C070D06FD0082F6DD080E0C81688
:107ED00080E7D80618F4F601B7BEE895C0E0D1E017
:107EE00062D089930C17E1F7F0E0CF16F0E7DF06D8
:107EF00018F0F601B7BEE89568D007B600FCFDCFD4
:107F0000A601A0E0B1E02C9130E011968C91119780
:107F100090E0982F8827822B932B1296FA010C0160
:107F200087BEE89511244E5F5F4FF1E0A038BF0790
:107F300051F7F601A7BEE89507B600FCFDCF97BE46
:107F4000E89526C08437B1F42ED02DD0F82E2BD052
:107F50003CD0F601EF2C8F010F5F1F4F84911BD097
:107F6000EA94F801C1F70894C11CD11CFA94CF0C13
:107F7000D11C0EC0853739F428D08EE10CD085E9AC
:107F80000AD08FE07ACF813511F488E018D01DD067
:107F900080E101D065CF982F8091C00085FFFCCF94
:107FA0009093C60008958091C00087FFFCCF809118
:107FB000C00084FD01C0A8958091C6000895E0E648
:107FC000F0E098E1908380830895EDDF803219F02E
:107FD00088E0F5DFFFCF84E1DECF1F93182FE3DFCA
:107FE0001150E9F7F2DF1F91089580E0E8DFEE27F6
:047FF000FF270994CA
:027FFE00040479
:00000001FF
