:020000040000FA
:100000000C9422010C9464040C943D040C944A0159
:100010000C944A010C944A010C944A010C944A0134
:100020000C944A010C944A010C944A010C944A0124
:100030000C944A010C944A010C944A010C944A0114
:100040000C94F3030C944A010C94B1040C948B04AB
:100050000C944A010C944A010C944A010C944A01F4
:100060000C944A010C944A012D2D2D2D2D2D2D2D52
:100070002D2D2D2D2D2D2D2D2D2D2D2D2D2D2D2DB0
:100080002D2D2D2D2D2D2D2D2D2D0053455455501D
:100090003A2044696D6D6572205365747570204314
:1000A0006F6D706C6574652E002D2D2D20456E646E
:1000B000206F6620436F6E66696775726174696F41
:1000C0006E202D2D2D004C445220696E697469619B
:1000D0006C2076616C7565203A200050504F544575
:1000E0004E54494F4D4554455220696E69746961BB
:1000F0006C2076616C7565203A200020487A0041BA
:1001000043204672657175656E63793A20002D2D26
:100110002D20436F6E66696775726174696F6E201A
:100120002D2D2D002D2D2D2D2D2D2D2D2D2D2D2D2C
:100130002D2D2D2D2D2D2D2D2D2D2D2D2D2D2D2DEF
:100140002D2D2D2D2D2D0044696D6D65722053656B
:100150007475702053746172742E2E2E20002D2D14
:100160002D2D2D2D2D2D2D2D2D2D2D2D2D2D2D2DBF
:100170002D2D2D2D2D2D2D2D2D2D2D2D2D2D2D2DAF
:10018000004C4452206E65772076616C7565203A8C
:10019000200043757272656E742074696D653A2033
:1001A000002C73797374656D2077696C6C207265AF
:1001B0007665727420746F204175746F6D61746917
:1001C00063206D6F64652E00417420004375727268
:1001D000656E742074696D653A200050504F544527
:1001E0004E54494F4D455445522076616C75653AE1
:1001F000200000000000240027002A00000000006A
:10020000250028002B000404040404040404020252
:100210000202020203030303030301020408102085
:100220004080010204081020010204081020000090
:1002300000080002010000030407000000000000A5
:100240000000FD0611241FBECFEFD8E0DEBFCDBFFA
:1002500011E0A0E0B1E0E8E4FFE002C005900D92FB
:10026000AC35B107D9F722E0ACE5B1E001C01D9291
:10027000AB30B207E1F711E0C2E2D1E004C0219750
:10028000FE010E949C07C132D107C9F70E94E30416
:100290000C94A2070C940000E5E3F2E02491E1E263
:1002A000F2E09491EDE0F2E0E491EE23C9F0222334
:1002B00039F0233001F1A8F4213019F1223029F16D
:1002C000F0E0EE0FFF1FE450FE4FA591B4912FB761
:1002D000F894EC91811126C090959E239C932FBF9A
:1002E00008952730A9F02830C9F0243049F720912B
:1002F00080002F7D03C0209180002F772093800005
:10030000DFCF24B52F7724BDDBCF24B52F7DFBCFE6
:100310002091B0002F772093B000D2CF2091B00071
:100320002F7DF9CF9E2BDACFCF93DF9390E0FC01A6
:10033000E65EFD4F24918A5F9D4FFC0184918823E6
:10034000C9F090E0880F991FFC01EE50FE4FA59177
:10035000B491FC01E450FE4FC591D49161110DC0E0
:100360009FB7F8948C91209582238C9388812823C1
:1003700028839FBFDF91CF910895623051F49FB7DA
:10038000F8943C91822F809583238C93E8812E2BC7
:10039000EFCF8FB7F894EC912E2B2C938FBFEACF31
:1003A0008E50806480937C0080917A00806480937A
:1003B0007A0080917A0086FDFCCF80917800909140
:1003C000790008953FB7F89480916A0190916B018C
:1003D000A0916C01B0916D0126B5A89B05C02F3F7F
:1003E00019F00196A11DB11D3FBFBA2FA92F982F5B
:1003F0008827BC01CD01620F711D811D911D42E056
:10040000660F771F881F991F4A95D1F708950895A1
:10041000AF92BF92CF92DF92EF92FF920F931F9312
:10042000CF93DF936C017B018B01040F151FEB0150
:100430005E01AE18BF08C017D10759F06991D60107
:10044000ED91FC910190F081E02DC6010995892B79
:1004500079F7C501DF91CF911F910F91FF90EF9038
:10046000DF90CF90BF90AF900895FC01538D448DE5
:10047000252F30E0842F90E0821B930B541710F04F
:10048000CF96089501970895FC01918D828D98175C
:1004900061F0A28DAE0FBF2FB11D5D968C91928D34
:1004A0009F5F9F73928F90E008958FEF9FEF089565
:1004B000FC01918D828D981731F0828DE80FF11D2E
:1004C000858D90E008958FEF9FEF0895FC01918D49
:1004D000228D892F90E0805C9F4F821B91098F7342
:1004E000992708958EE691E00E94660221E0892B0B
:1004F00009F420E0822F089580E090E0892B29F014
:100500000E94720281110C9400000895FC01A48DD8
:10051000A80FB92FB11DA35ABF4F2C91848D90E025
:1005200001968F739927848FA689B7892C93A08908
:10053000B1898C91837080648C93938D848D981392
:1005400006C00288F389E02D80818F7D8083089525
:10055000EF92FF920F931F93CF93DF93EC0181E013
:10056000888F9B8D8C8D98131AC0E889F9898081BA
:1005700085FF15C09FB7F894EE89FF896083E889ED
:10058000F98980818370806480839FBF81E090E0DF
:10059000DF91CF911F910F91FF90EF900895F62E6C
:1005A0000B8D10E00F5F1F4F0F731127E02E8C8D06
:1005B0008E110CC00FB607FCFACFE889F98980814B
:1005C00085FFF5CFCE010E948602F1CFEB8DEC0FB7
:1005D000FD2FF11DE35AFF4FF0829FB7F8940B8F68
:1005E000EA89FB8980818062CFCF0F931F93CF93DD
:1005F000DF938C01D0E0C0E0F801EC0FFD1F6491A7
:10060000662341F08EE691E00E94A802892B11F04A
:100610002196F2CFCE01DF91CF911F910F910895D6
:10062000CF93DF93EC01888D8823B9F0AA89BB8929
:10063000E889F9898C9185FD03C0808186FD0DC014
:100640000FB607FCF7CF8C9185FFF2CF808185FF35
:10065000EDCFCE010E948602E9CFDF91CF910895C0
:1006600080910401909105018230910538F0880F46
:10067000991F880F991F05970197F1F781E00E9454
:100680004C0183E290E00197F1F780E00C944C017B
:10069000FC0101900020E9F73197AF01481B590B8D
:1006A000BC018EE691E00C940802CF93DF930E9488
:1006B000F502EC0188E191E00E9448038C0F9D1F38
:1006C000DF91CF9108958F929F92AF92BF920F9337
:1006D0001F93CF93DF93CDB7DEB7A1970FB6F894F2
:1006E000DEBF0FBECDBF19A2423008F44AE08E0132
:1006F0000F5D1F4F842E912CB12CA12CA5019401CC
:100700000E945C07E62FB901CA01EA30F4F4E05D0B
:10071000D801EE938D01232B242B252B79F790E024
:1007200080E0109719F0CD010E944803A1960FB602
:10073000F894DEBF0FBECDBFDF91CF911F910F9117
:10074000BF90AF909F908F900895E95CE1CFCF93D9
:10075000DF930E944803EC0188E191E00E94480386
:100760008C0F9D1FDF91CF910895CF92DF92EF9272
:10077000FF92CF93DF9397FF1BC06B017C016DE26B
:100780008EE691E00E94A802EC0166277727CB0154
:100790006C197D098E099F094AE00E9463038C0F42
:1007A0009D1FDF91CF91FF90EF90DF90CF90089544
:1007B0004AE0DF91CF91FF90EF90DF90CF900C94C3
:1007C0006303CF93DF93BC01990F880B990B0E94B1
:1007D000B503EC0188E191E00E9448038C0F9D1F56
:1007E000DF91CF9108951F920F920FB60F921124AF
:1007F0002F933F938F939F93AF93BF938091660105
:1008000090916701A0916801B091690130916501F3
:1008100023E0230F2D3758F50196A11DB11D20931C
:1008200065018093660190936701A0936801B0937E
:10083000690180916A0190916B01A0916C01B09166
:100840006D010196A11DB11D80936A0190936B010A
:10085000A0936C01B0936D01BF91AF919F918F9167
:100860003F912F910F900FBE0F901F90189526E883
:10087000230F0296A11DB11DD2CF1F920F920FB66A
:100880000F9211242F933F934F935F936F937F9316
:100890008F939F93AF93BF93EF93FF93E0910201E8
:1008A000F09103010995FF91EF91BF91AF919F9155
:1008B0008F917F916F915F914F913F912F910F9009
:1008C0000FBE0F901F9018951F920F920FB60F92A8
:1008D00011242F933F934F935F936F937F938F9345
:1008E0009F93AF93BF93EF93FF93E0910001F0913B
:1008F00001010995FF91EF91BF91AF919F918F9168
:100900007F916F915F914F913F912F910F900FBE0B
:100910000F901F9018951F920F920FB60F921124EF
:100920002F933F934F935F936F937F938F939F93F7
:10093000AF93BF93EF93FF938EE691E00E94860200
:10094000FF91EF91BF91AF919F918F917F916F91A7
:100950005F914F913F912F910F900FBE0F901F907D
:1009600018951F920F920FB60F9211242F938F9309
:100970009F93EF93FF93E0917E01F0917F0180813F
:10098000E0918401F091850182FD1BC090818091EE
:1009900087018F5F8F7320918801821741F0E0916A
:1009A0008701F0E0E259FE4F958F80938701FF9118
:1009B000EF919F918F912F910F900FBE0F901F90ED
:1009C00018958081F4CF789484B5826084BD84B515
:1009D000816084BD85B5826085BD85B5816085BD3A
:1009E00080916E00816080936E00109281008091F2
:1009F000810082608093810080918100816080937A
:100A00008100809180008160809380008091B1009E
:100A100084608093B1008091B00081608093B000C9
:100A200080917A00846080937A0080917A0082605D
:100A300080937A0080917A00816080937A0080911F
:100A40007A00806880937A001092C100E0917E0164
:100A5000F0917F0182E08083E0917A01F0917B0147
:100A60001082E0917C01F0917D018FEC80831092E7
:100A70008601E0918201F091830186E08083E0911C
:100A80008001F0918101808180618083E09180010B
:100A9000F0918101808188608083E0918001F091F4
:100AA0008101808180688083E0918001F0918101E3
:100AB00080818F7D80838EE591E00E94550387E4DD
:100AC00091E00E94550384E291E00E94550361E0A9
:100AD00087E00E94940180E00E944C0162E082E085
:100AE0000E94940160E08EE00E94940160E08FE03B
:100AF0000E94940180E393E09093010180930001B0
:100B000080916900836080936900E89A8EE00E947A
:100B1000D00190936401809363018FE00E94D00123
:100B200090935D0180935C018AE191E00E94A703AC
:100B30008EE091E00E9455038FEF90E00E94F50255
:100B400062E370E080E090E00E94B5038BEF90E0FC
:100B50000E9455038BED90E00E94F50280916301A5
:100B6000909164010E94E10386EC90E00E94F502FE
:100B700080915C0190915D010E94E10389EA90E01F
:100B80000E9455038AE191E00E94A7038BE890E060
:100B90000E94550388E690E00E94550395EC492E8B
:100BA00093E0592E612C712CC0E0D0E011E08EE072
:100BB0000E94D0017C0180916301909164019701B2
:100BC000281B390BC90137FF03C091958195910905
:100BD0000B970CF450C080916201811104C08BE12D
:100BE00091E00E94A703109362012FB7F8948091BF
:100BF000660190916701A0916801B09169012FBFD2
:100C000080935E0190935F01A0936001B0936101B6
:100C1000F0926401E09263018BED91E00E94F50295
:100C2000C7010E94E1038CEC91E00E94F502609103
:100C30005E0170915F0180916001909161010E945D
:100C4000B50388E191E00E94480388EC91E00E949E
:100C5000F50260915E0170915F0180916001909159
:100C60006101605F784D8F4F9F4F0E94B50381EA0D
:100C700091E00E94550380916201882309F48EC09F
:100C80002FB7F8948091660190916701A091680157
:100C9000B09169012FBF40915E0150915F01609159
:100CA000600170916101841B950BA60BB70B81311C
:100CB0009742A105B105E0F085E391E00E94A7030A
:100CC00082E991E00E94F5022FB7F89460916601E5
:100CD0007091670180916801909169012FBF4AE08E
:100CE0000E94630388E191E00E9448031092620130
:100CF00080916201882309F451C090916301809131
:100D00006401292F382F211584E0380714F02FEFC4
:100D100033E037FF02C030E020E0ACE9B6EE0E94DD
:100D20008D072FEF33E040E050E00E942A07205C5F
:100D3000304E4F4F5F4F30930501209304010E94C6
:100D4000E2014B015C0182E3C82ED12CE12CF12C95
:100D50000E94E201681979098A099B09683E73407B
:100D600081059105A8F321E0C21AD108E108F10834
:100D700038EE830E33E0931EA11CB11CC114D104C4
:100D8000E104F10429F7209709F411CF0E947202BF
:100D9000882309F40CCF0E94000009CF8FE00E9445
:100DA000D0017C0180915C0190915D01E816F9060B
:100DB00059F081E891E00E94F502C7010E94E10329
:100DC000F0925D01E0925C019701FF0C440B550B22
:100DD0002A50310941095109A1E0BCEF0E9457078F
:100DE000A30192010E942A07BA01A90141505C4F58
:100DF0006F4F7F4F942F852F84CFEEE6F1E0138263
:100E0000128288EE93E0A0E0B0E084839583A6830D
:100E1000B7838AE091E09183808385EC90E09587A9
:100E2000848784EC90E09787868780EC90E0918BB4
:100E3000808B81EC90E0938B828B82EC90E0958BA1
:100E4000848B86EC90E0978B868B118E128E138E9E
:100E5000148E0895052E97FB1EF400940E944107FE
:100E600057FD07D00E945C0707FC03D04EF40C949A
:100E7000410750954095309521953F4F4F4F5F4F1B
:100E8000089590958095709561957F4F8F4F9F4FF6
:100E900008950E947E07A59F900DB49F900DA49F7A
:100EA000800D911D11240895B7FF0C9449070E94ED
:100EB0004907821B930B0895A1E21A2EAA1BBB1BA4
:100EC000FD010DC0AA1FBB1FEE1FFF1FA217B30716
:100ED000E407F50720F0A21BB30BE40BF50B661F2C
:100EE000771F881F991F1A9469F7609570958095F0
:100EF00090959B01AC01BD01CF010895A29FB00167
:100F0000B39FC001A39F700D811D1124911DB29F3D
:100F1000700D811D1124911D08950E947E073323B9
:100F200012F48A1B9B0B0C9497070E947E07B7FF55
:100F30000895821B930B0895EE0FFF1F0590F49107
:100F4000E02D0994F894FFCF07020702DC050000AA
:100F50000000A8020802350210036602440258028B
:100F60000D0A00537769746368696E6720746F2097
:100F70004D414E55414C206D6F64652E0054696D96
:100F8000656F75742120526576657274696E67208D
:100F9000746F204155544F4D41544943206D6F6447
:040FA000652E0000BA
:107E0000112484B714BE81FFF0D085E080938100F7
:107E100082E08093C00088E18093C10086E0809377
:107E2000C20080E18093C4008EE0C9D0259A86E02C
:107E300020E33CEF91E0309385002093840096BBD3
:107E4000B09BFECF1D9AA8958150A9F7CC24DD24C4
:107E500088248394B5E0AB2EA1E19A2EF3E0BF2EE7
:107E6000A2D0813461F49FD0082FAFD0023811F036
:107E7000013811F484E001C083E08DD089C08234E0
:107E800011F484E103C0853419F485E0A6D080C0E4
:107E9000853579F488D0E82EFF2485D0082F10E0AE
:107EA000102F00270E291F29000F111F8ED06801E7
:107EB0006FC0863521F484E090D080E0DECF843638
:107EC00009F040C070D06FD0082F6DD080E0C81688
:107ED00080E7D80618F4F601B7BEE895C0E0D1E017
:107EE00062D089930C17E1F7F0E0CF16F0E7DF06D8
:107EF00018F0F601B7BEE89568D007B600FCFDCFD4
:107F0000A601A0E0B1E02C9130E011968C91119780
:107F100090E0982F8827822B932B1296FA010C0160
:107F200087BEE89511244E5F5F4FF1E0A038BF0790
:107F300051F7F601A7BEE89507B600FCFDCF97BE46
:107F4000E89526C08437B1F42ED02DD0F82E2BD052
:107F50003CD0F601EF2C8F010F5F1F4F84911BD097
:107F6000EA94F801C1F70894C11CD11CFA94CF0C13
:107F7000D11C0EC0853739F428D08EE10CD085E9AC
:107F80000AD08FE07ACF813511F488E018D01DD067
:107F900080E101D065CF982F8091C00085FFFCCF94
:107FA0009093C60008958091C00087FFFCCF809118
:107FB000C00084FD01C0A8958091C6000895E0E648
:107FC000F0E098E1908380830895EDDF803219F02E
:107FD00088E0F5DFFFCF84E1DECF1F93182FE3DFCA
:107FE0001150E9F7F2DF1F91089580E0E8DFEE27F6
:047FF000FF270994CA
:027FFE00040479
:00000001FF
