:100000000C94EA010C94ED050C94C6050C941202B4
:100010000C9412020C9412020C9412020C94120210
:100020000C9412020C9412020C9412020C94120200
:100030000C9412020C9412020C9412020C941202F0
:100040000C947C050C9412020C943A060C94140641
:100050000C9412020C9412020C9412020C941202D0
:100060000C9412020C941202206C6F616465643A65
:10007000200020202D3E205363656E6520002069FE
:100080007320696E76616C69642E2053657474699F
:100090006E672064656661756C742E0020202D3EAD
:1000A000205363656E652000454550524F4D3A2000
:1000B0004C6F6164696E67207363656E65732E2E85
:1000C0002E002D2D2D2D2D2D2D2D2D2D2D2D2D2D8C
:1000D0002D2D2D2D2D2D2D2D2D2D2D2D2D2D2D2D50
:1000E0002D2D2D2D000A536574757020436F6D7092
:1000F0006C6574652E20496E697469616C204D6F62
:1001000064653A204155544F20284C445229002D13
:100110002D2D20456E64206F6620436F6E666967E3
:1001200075726174696F6E202D2D2D0A00496E69FC
:100130007469616C20506F74656E74696F6D65745D
:1001400065722056616C75653A2000414320467205
:10015000657175656E63793A20000A2D2D2D204357
:100160006F6E66696775726174696F6E202D2D2DD3
:10017000002D2D2D2D2D2D2D2D2D2D2D2D2D2D2DDC
:100180002D2D2D2D2D2D2D2D2D2D2D2D2D2D2D2D9F
:100190002D2D2D00416476616E63656420414320FE
:1001A00044696D6D6572202D20496E697469616CBA
:1001B000697A696E672E2E2E000A2D2D2D2D2D2D7C
:1001C0002D2D2D2D2D2D2D2D2D2D2D2D2D2D2D2D5F
:1001D0002D2D2D2D2D2D2D2D2D2D2D2D002073610F
:1001E0007665643A2000454550524F4D3A2053639E
:1001F000656E65200054494D454F55543A204D6F6A
:1002000074696F6E206D6F646520657870697265C2
:10021000642E20526576657274696E6720746F2053
:1002200070726576696F75733A200054494D454F79
:1002300055543A205363656E65206D6F6465206583
:100240007870697265642E20526576657274696E85
:100250006720746F2070726576696F75733A20003D
:1002600054494D454F55543A204D616E75616C208F
:100270006D6F646520657870697265642E205265C3
:1002800076657274696E6720746F204155544F2EE5
:10029000002E20526563616C6C696E672073636524
:1002A0006E652E00414354494F4E3A2053686F7299
:1002B00074207072657373206F6E20627574746F32
:1002C0006E20002E20536176696E67207363656E21
:1002D000652E00414354494F4E3A204C6F6E6720C3
:1002E0007072657373206F6E20627574746F6E2008
:1002F0000020707265737365642E004556454E5438
:100300003A20427574746F6E200053544154455F17
:100310004348414E47453A204D6F74696F6E2064E3
:1003200065746563746564202D3E204D4F54494FBC
:100330004E206D6F64652E2046726F6D3A2000531B
:10034000544154455F4348414E47453A20506F74ED
:10035000656E74696F6D65746572206D6F76656426
:10036000202D3E204D414E55414C206D6F64652E31
:100370002046726F6D3A2000000000002400270024
:100380002A0000000000250028002B0000000000CB
:1003900023002600290004040404040404040202C7
:1003A00002020202030303030303010204081020F4
:1003B00040800102040810200102040810200000FF
:1003C0000008000201000003040700000000000014
:1003D0000000230A11241FBECFEFD8E0DEBFCDBF3F
:1003E00011E0A0E0B1E0E2EAF5E102C005900D9273
:1003F000A235B107D9F722E0A2E5B1E001C01D9214
:10040000A132B207E1F711E0CAEED1E004C02197B2
:10041000FE010E94C90AC93ED107C9F70E946C06B5
:100420000C94CF0A0C940000833081F028F48130C2
:1004300099F08230A9F008958730A9F08830C9F08A
:100440008430B1F4809180008F7D03C08091800062
:100450008F7780938000089584B58F7784BD089549
:1004600084B58F7DFBCF8091B0008F778093B000F3
:1004700008958091B0008F7DF9CFCF93DF93282F1F
:1004800030E0F901E254FC4F8491F901E655FC4F4C
:10049000D491F901EA56FC4FC491CC23A1F081110B
:1004A0000E941402EC2FF0E0EE0FFF1FE457FC4F08
:1004B000A591B491EC91ED2381E090E009F480E006
:1004C000DF91CF91089580E090E0FACF1F93CF9312
:1004D000DF93282F30E0F901E254FC4F8491F901B9
:1004E000E655FC4FD491F901EA56FC4FC491CC2358
:1004F000A9F0162F81110E941402EC2FF0E0EE0FEC
:10050000FF1FEE57FC4FA591B4918FB7F894EC9173
:10051000111108C0D095DE23DC938FBFDF91CF91FE
:100520001F910895DE2BF8CFCF93DF9390E0FC016D
:10053000E655FC4F24918A569C4FFC0184918823F8
:10054000C9F090E0880F991FFC01E858FC4FA59175
:10055000B491FC01EE57FC4FC591D49161110DC0CF
:100560009FB7F8948C91209582238C9388812823BF
:1005700028839FBFDF91CF910895623051F49FB7D8
:10058000F8943C91822F809583238C93E8812E2BC5
:10059000EFCF8FB7F894EC912E2B2C938FBFEACF2F
:1005A0008E50806480937C0080917A008064809378
:1005B0007A0080917A0086FDFCCF8091780090913E
:1005C000790008953FB7F89480918001909181015E
:1005D000A0918201B091830126B5A89B05C02F3F51
:1005E00019F00196A11DB11D3FBFBA2FA92F982F59
:1005F0008827BC01CD01620F711D811D911D42E054
:10060000660F771F881F991F4A95D1F708958F921B
:100610009F92AF92BF92CF92DF92EF92FF924B01E7
:100620005C010E94E2026B017C010E94E2026C19F3
:100630007D098E099F09683E734081059105A8F3E5
:1006400021E0821A9108A108B10888EEC80E83E063
:10065000D81EE11CF11C81149104A104B10429F7F6
:10066000FF90EF90DF90CF90BF90AF909F908F90D2
:1006700008950895AF92BF92CF92DF92EF92FF92CA
:100680000F931F93CF93DF936C017B018B01040FBA
:10069000151FEB015E01AE18BF08C017D10759F056
:1006A0006991D601ED91FC910190F081E02DC60198
:1006B0000995892B79F7C501DF91CF911F910F9192
:1006C000FF90EF90DF90CF90BF90AF900895FC0126
:1006D000538D448D252F30E0842F90E0821B930BA7
:1006E000541710F0CF96089501970895FC01918D4D
:1006F000828D981761F0A28DAE0FBF2FB11D5D9650
:100700008C91928D9F5F9F73928F90E008958FEFF1
:100710009FEF0895FC01918D828D981731F0828DA5
:10072000E80FF11D858D90E008958FEF9FEF0895FC
:10073000FC01918D228D892F90E0805C9F4F821B60
:1007400091098F739927089584E891E00E94980396
:1007500021E0892B09F420E0822F089580E090E0C9
:10076000892B29F00E94A40381110C9400000895A4
:10077000FC01A48DA80FB92FB11DA35ABF4F2C9116
:10078000848D90E001968F739927848FA689B7890D
:100790002C93A089B1898C91837080648C93938D04
:1007A000848D981306C00288F389E02D80818F7DA7
:1007B00080830895EF92FF920F931F93CF93DF935F
:1007C000EC0181E0888F9B8D8C8D98131AC0E8898D
:1007D000F989808185FF15C09FB7F894EE89FF895C
:1007E0006083E889F98980818370806480839FBFFA
:1007F00081E090E0DF91CF911F910F91FF90EF90FA
:100800000895F62E0B8D10E00F5F1F4F0F73112709
:10081000E02E8C8D8E110CC00FB607FCFACFE88944
:10082000F989808185FFF5CFCE010E94B803F1CF11
:10083000EB8DEC0FFD2FF11DE35AFF4FF0829FB7B8
:10084000F8940B8FEA89FB8980818062CFCF0F9368
:100850001F93CF93DF938C01D0E0C0E0F801EC0F41
:10086000FD1F6491662341F084E891E00E94DA0361
:10087000892B11F02196F2CFCE01DF91CF911F91FC
:100880000F910895CF93DF93EC01888D8823B9F001
:10089000AA89BB89E889F9898C9185FD03C080818B
:1008A00086FD0DC00FB607FCF7CF8C9185FFF2CF08
:1008B000808185FFEDCFCE010E94B803E9CFDF91A3
:1008C000CF9108950F931F93CF93DF938C01D0E0C6
:1008D000C0E061E08DE00E94660264E670E080E0C6
:1008E00090E00E94070360E08DE00E94660264E6EB
:1008F00070E080E090E00E94070321960C171D072E
:1009000041F7DF91CF911F910F91089580910401DC
:10091000909105018230910538F0880F991F880F5A
:10092000991F05970197F1F761E087E00E94660241
:1009300083E290E00197F1F760E087E00C946602B3
:10094000FC0101900020E9F73197AF01481B590BDA
:10095000BC0184E891E00C943A03CF93DF930E94AA
:100960002704EC0188E291E00E94A0048C0F9D1FF7
:10097000DF91CF910895CF93DF93D0E0C0E000974F
:1009800019F00E94A004EC0188E291E00E94A0040A
:100990008C0F9D1FDF91CF9108958F929F92AF9200
:1009A000BF92CF92DF92EF92FF920F931F93CF935C
:1009B000DF93CDB7DEB7A1970FB6F894DEBF0FBEB9
:1009C000CDBF6C01990FEE08FF08F7FE41C06DE244
:1009D00084E891E00E94DA038C0122273327A901E1
:1009E0002C193D094E095F0919A2CE0181967C019F
:1009F0009AE0892E912CA12CB12CCA01B901A50134
:100A000094010E94980A605DF70162937F012115AD
:100A100031054105510589F790E080E0309719F0E4
:100A2000CF010E94A004800F911FA1960FB6F894E9
:100A3000DEBF0FBECDBFDF91CF911F910F91FF9011
:100A4000EF90DF90CF90BF90AF909F908F900895E0
:100A5000A701960119A28E010F5D1F4F8AE0C82ED3
:100A6000D12CE12CF12CCA01B901A70196010E94F9
:100A7000980A605DF80162938F01211531054105E7
:100A8000510589F790E080E0309779F2CF010E941C
:100A9000A004CBCFCF93DF930E94CD04EC0188E27A
:100AA00091E00E94A0048C0F9D1FDF91CF910895CB
:100AB000FF920F931F93CF93DF93EC018B01FB0108
:100AC000F0800E94500AF81621F06F2DCE010E948E
:100AD000580AF801F1802196CE010E94500AF816BA
:100AE00021F06F2DCE010E94580AC801DF91CF91ED
:100AF0001F910F91FF9008951F920F920FB60F92C2
:100B000011242F933F938F939F93AF93BF93809123
:100B10007C0190917D01A0917E01B0917F01309187
:100B20007B0123E0230F2D3758F50196A11DB11D40
:100B300020937B0180937C0190937D01A0937E01A3
:100B4000B0937F018091800190918101A0918201F9
:100B5000B09183010196A11DB11D809380019093F6
:100B60008101A0938201B0938301BF91AF919F91C6
:100B70008F913F912F910F900FBE0F901F9018955E
:100B800026E8230F0296A11DB11DD2CF1F920F920E
:100B90000FB60F9211242F933F934F935F936F9350
:100BA0007F938F939F93AF93BF93EF93FF93E091C6
:100BB0000201F09103010995FF91EF91BF91AF916F
:100BC0009F918F917F916F915F914F913F912F9165
:100BD0000F900FBE0F901F9018951F920F920FB697
:100BE0000F9211242F933F934F935F936F937F93B3
:100BF0008F939F93AF93BF93EF93FF93E091000187
:100C0000F09101010995FF91EF91BF91AF919F91F3
:100C10008F917F916F915F914F913F912F910F90A5
:100C20000FBE0F901F9018951F920F920FB60F9244
:100C300011242F933F934F935F936F937F938F93E1
:100C40009F93AF93BF93EF93FF9384E891E00E944B
:100C5000B803FF91EF91BF91AF919F918F917F91D9
:100C60006F915F914F913F912F910F900FBE0F9019
:100C70001F9018951F920F920FB60F9211242F9369
:100C80008F939F93EF93FF93E0919401F0919501DF
:100C90008081E0919A01F0919B0182FD1BC09081BF
:100CA00080919D018F5F8F7320919E01821741F08B
:100CB000E0919D01F0E0EC57FE4F958F80939D01F0
:100CC000FF91EF919F918F912F910F900FBE0F90F9
:100CD0001F9018958081F4CF789484B5826084BD8C
:100CE00084B5816084BD85B5826085BD85B5816030
:100CF00085BD80916E00816080936E0010928100AE
:100D00008091810082608093810080918100816068
:100D10008093810080918000816080938000809129
:100D2000B10084608093B1008091B00081608093B5
:100D3000B00080917A00846080937A0080917A007C
:100D4000826080937A0080917A00816080937A003B
:100D500080917A00806880937A001092C100E091BF
:100D60009401F091950182E08083E0919001F091EF
:100D700091011082E0919201F09193018FEC8083B8
:100D800010929C01E0919801F091990186E0808396
:100D9000E0919601F0919701808180618083E091DC
:100DA0009601F0919701808188608083E09196019F
:100DB000F0919701808180688083E0919601F091A5
:100DC000970180818F7D808389EB91E00E94AD0443
:100DD00084E991E00E94AD0481E791E00E94AD04B6
:100DE00061E087E00E94940260E087E00E94660272
:100DF00062E082E00E94940260E08EE00E94940231
:100E000060E08FE00E94940260E088E00E9494021B
:100E100061E08DE00E94940262E084E00E9494020E
:100E200062E085E00E94940262E086E00E94940203
:100E30008EE00E94D00290937A01809379018AE536
:100E400091E00E94AD048BE491E00E94270482E3CC
:100E500090E00E944A058DE291E00E942704809173
:100E6000790190917A010E944A058FE091E00E94F9
:100E7000AD0488EA90E00E94AD04C2E5D1E0F12C17
:100E8000E12C10E000E0B4E68B2E912CC12C82E026
:100E9000D82EAA24AA9493E0B92EC7010E94500A22
:100EA0008883C70101960E94500A89830F5F1F4FF4
:100EB000888199818115944008F45CC18CE990E0A7
:100EC0000E942704C8010E94CD048EE790E00E9492
:100ED000AD04C801019709F041C1B0925301A0923D
:100EE0005201BE01C7010E94580532E0E30EF11C19
:100EF00022960330110589F686E894E0909301016B
:100F00008093000180916900836080936900E89A72
:100F100085EE90E00E94AD0482EC90E00E94AD046A
:100F2000A2E02A2E312C8FB7F89480907C0190900B
:100F30007D01A0907E01B0907F018FBF88E00E946C
:100F40003D022C018EE00E94D0028C01809179013B
:100F500090917A01A801481B590BCA0157FF03C0A1
:100F60009195819591090B970CF414C1C09177016B
:100F7000D0917801C130D10589F08FE393E00E94D0
:100F800027048BE291E0C430D10530F4CC0FDD1F93
:100F9000C05EDE4F888199810E94BB0481E090E0B1
:100FA00090937801809377018092730190927401FD
:100FB000A0927501B092760110937A0100937901A5
:100FC0008FEF9FEF90930701809306018091770147
:100FD000909178010197E9F48091730190917401E7
:100FE000A0917501B0917601A5019401281B390BE0
:100FF0004A0B5B0BDA01C90181319742A105B105AA
:1010000040F080E692E00E94AD04109278011092C8
:10101000770180917701909178010297C1F58091D5
:10102000580190915901A0915A01B0915B01A5011D
:101030009401281B390B4A0B5B0BDA01C901813380
:101040009547A105B10518F18BE292E00E942704B3
:1010500080917101909172018430910508F09AC1DC
:10106000880F991FFC01E05EFE4F808191810E94F4
:10107000BB048091710190917201909378018093EB
:1010800077018FEF9FEF9093070180930601809186
:10109000770190917801039799F54A94452881F159
:1010A00080916D0190916E01A0916F01B0917001DE
:1010B000881A990AAA0ABB0A51E685165AEE9506BD
:1010C000A104B104E8F085EF91E00E94270480912B
:1010D0007101909172018430910508F05EC1880F12
:1010E000991FFC01E05EFE4F808191810E94BB044C
:1010F00080917101909172019093780180937701B2
:1011000080917701909178018130910509F448C16F
:1011100038F08230910509F482C1039709F048C183
:101120008FE00E94D0029C01990F440B550B2A506E
:10113000310941095109A1E0BCEF0E94930A25EC55
:1011400033E040E050E00E94660A21503C4F4F4F90
:101150005F4F30935D0120935C012AC1019729F410
:10116000D0925501C0925401BCCE9092570180920A
:101170005601B7CE82E790E00E942704C8010E9482
:10118000CD0488E690E00E942704888199810E941E
:101190004A05ABCE51E04516510479F5C09177016F
:1011A000D0917801C330D105F9F08AE093E00E9434
:1011B00027048BE291E0C430D10530F4CC0FDD1F61
:1011C000C05EDE4F888199810E94BB0480917701C7
:1011D00090917801909372018093710183E090E087
:1011E000909378018093770180926D0190926E01C7
:1011F000A0926F01B0927001E9CE6AE1662E61E0C3
:10120000762E71E6E72E71E0F72E0EE511E0D12C77
:10121000C12CF3018081F2E06F0E711C0E943D022F
:10122000F7014081518162817381E6012196892B0A
:1012300009F079C0452B462B472B89F48082918297
:10124000A282B382F80110828BEF92E00E94270401
:10125000CE010E94CD0481EF92E00E94AD04F8011E
:101260008081811156C0F70180819181A281B38173
:10127000A5019401281B390B4A0B5B0BDA01C9014C
:10128000893B9B40A105B10508F443C083ED92E082
:101290000E942704CE010E94CD0483EC92E00E94BC
:1012A000AD04BE01660F771F6B0142E0C41AD1087E
:1012B000F601EE5AFE4F80915C0190915D0181151F
:1012C00054E0950714F08FEF93E097FF02C090E091
:1012D00080E091838083605B7E4FC6010E94580549
:1012E00086EE91E00E942704CE010E94CD048DED90
:1012F00091E00E942704F601EE5AFE4F8081918111
:101300000E944A0585E090E00E94620421E0F80115
:101310002083F4E0EF0EF11C0F5F1F4F6E01239747
:1013200009F077CF53CE452B462B472B91F3F8018D
:101330008081811129C084EA92E00E942704CE01B5
:101340000E94CD0481E992E00E94AD048091770172
:10135000909178018230910521F0909372018093F1
:1013600071013092780120927701D0920701C092EA
:1013700006018092580190925901A0925A01B092B0
:101380005B01CE010E946204F70110821182128279
:101390001382BFCF8BE291E06ACE8BE291E0A6CEC2
:1013A0008091790190917A0190935D0180935C0125
:1013B00020915C0130915D0137FD41C02115F4E0C1
:1013C0003F0714F02FEF33E0032E000C440B550BB6
:1013D000ACE9B6EE0E94930A2FEF33E040E050E014
:1013E0000E94660A205C304E4F4F5F4FF894309356
:1013F000050120930401789464E170E080E090E0BE
:101400000E94070380E090E0892B09F48CCD0E94B4
:10141000A403882309F487CD0E94000084CD809125
:101420000601909107018F3F980709F4C1CF880FFB
:10143000991FFC01EE5AFE4F80819181B5CF20E0CB
:1014400030E0A901C5CFE4E8F1E01382128288EE12
:1014500093E0A0E0B0E084839583A683B7838CE01B
:1014600091E09183808385EC90E09587848784EC7C
:1014700090E09787868780EC90E0918B808B81EC61
:1014800090E0938B828B82EC90E0958B848B86EC42
:1014900090E0978B868B118E128E138E148E08958A
:1014A000F999FECF92BD81BDF89A992780B508952C
:1014B000262FF999FECF1FBA92BD81BD20BD0FB670
:1014C000F894FA9AF99A0FBE01960895052E97FBA3
:1014D0001EF400940E947D0A57FD07D00E94980ACE
:1014E00007FC03D04EF40C947D0A5095409530953E
:1014F00021953F4F4F4F5F4F089590958095709580
:1015000061957F4F8F4F9F4F08950E94BA0AA59F04
:10151000900DB49F900DA49F800D911D11240895EE
:10152000B7FF0C94850A0E94850A821B930B0895CD
:10153000A1E21A2EAA1BBB1BFD010DC0AA1FBB1FD7
:10154000EE1FFF1FA217B307E407F50720F0A21B49
:10155000B30BE40BF50B661F771F881F991F1A94B6
:1015600069F760957095809590959B01AC01BD01E0
:10157000CF010895A29FB001B39FC001A39F700D3A
:10158000811D1124911DB29F700D811D1124911D8B
:101590000895EE0FFF1F0590F491E02D0994F89443
:0215A000FFCF7B
:1015A20039033903401FFFFF00000000DA033A034A
:1015B20067034204980376038A03040005000600C9
:1015C20033013E0145014B010D0A00554E4B4E4F72
:1015D200574E004155544F20284C445229004D414A
:1015E2004E55414C005343454E45004D4F54494FD3
:0215F2004E00A9
:00000001FF
