:020000040000FA
:100000000C9494010C94AE060C9487060C94BC01DD
:100010000C94BC010C94BC010C94BC010C94BC016C
:100020000C94BC010C94BC010C94BC010C94BC015C
:100030000C94BC010C94BC010C94BC010C94BC014C
:100040000C943D060C94BC010C94FB060C94D50654
:100050000C94BC010C94BC010C94BC010C94BC012C
:100060000C94BC010C94BC012900202866726F6DB1
:100070003A200053544154455F4348414E47453A66
:10008000202D3E20002073617665642077697468B6
:100090002076616C75653A2000454550524F4D3AC7
:1000A000205363656E6520002E20526563616C6C81
:1000B000696E67207363656E652E00414354494F36
:1000C0004E3A2053686F7274207072657373206F9C
:1000D0006E205363656E6520002E20536176696E35
:1000E000672063757272656E7420627269676874E6
:1000F0006E6573732E00414354494F4E3A204C6F46
:100100006E67207072657373206F6E205363656E27
:10011000652000206C6F616465643A200020202017
:100120002D3E205363656E65200020697320696E43
:1001300076616C69642E2053657474696E672064FF
:10014000656661756C742E002020202D3E2053635F
:10015000656E652000454550524F4D3A204C6F6109
:1001600064696E67207363656E65732E2E2E002D95
:100170002D2D2D2D2D2D2D2D2D2D2D2D2D2D2D2DAF
:100180002D2D2D2D2D2D2D2D2D2D2D2D2D2D2D2D9F
:100190002D000A536574757020436F6D706C657423
:1001A000652E20496E697469616C204D6F64653AF3
:1001B000204155544F20284C445229002D2D2D2DDF
:1001C0002D2D2D2D2D2D2D2D2D2D2D2D2D2D2D2D5F
:1001D0002D2D2D2D2D2D2D2D2D2D2D2D2D2D004168
:1001E0006476616E6365642041432044696D6D658A
:1001F00072202D20496E697469616C697A696E6735
:100200002E2E2E000A2D2D2D2D2D2D2D2D2D2D2D6B
:100210002D2D2D2D2D2D2D2D2D2D2D2D2D2D2D2D0E
:100220002D2D2D2D2D2D2D0054494D454F55543A32
:10023000205363656E65206D6F6465206578706915
:100240007265642E20526576657274696E672074DB
:100250006F2070726576696F7573206D6F64652E9F
:100260000054494D454F55543A204D6F74696F6E97
:10027000206D6F646520657870697265642E205208
:100280006576657274696E6720746F20707265762A
:10029000696F7573206D6F64652E0054494D454F2D
:1002A00055543A204D616E75616C206D6F64652008
:1002B000657870697265642E20526576657274691E
:1002C0006E6720746F204155544F2E0000000000CF
:1002D000240027002A0000000000250028002B0031
:1002E0000000000023002600290004040404040484
:1002F00004040202020202020303030303030102D5
:1003000004081020408001020408102001020408A3
:100310001020000000080002010000030407000094
:10032000000000000000BB0911241FBECFEFD8E081
:10033000DEBFCDBF11E0A0E0B1E0E2EDF4E102C02C
:1003400005900D92A235B107D9F722E0A2E5B1E000
:1003500001C01D92AD31B207E1F711E0C4E9D1E06F
:1003600004C02197FE010E94610AC339D107C9F771
:100370000E942D070C94670A0C940000833081F0D2
:1003800028F4813099F08230A9F008958730A9F0DF
:100390008830C9F08430B1F4809180008F7D03C033
:1003A000809180008F7780938000089584B58F7747
:1003B00084BD089584B58F7DFBCF8091B0008F7789
:1003C0008093B00008958091B0008F7DF9CFCF93D6
:1003D000DF93282F30E0F901EE5EFC4F8491F901A4
:1003E000E250FD4FD491F901E651FD4FC491CC2369
:1003F000A1F081110E94BE01EC2FF0E0EE0FFF1F73
:10040000E052FD4FA591B491EC91ED2381E090E095
:1004100009F480E0DF91CF91089580E090E0FACF79
:100420001F93CF93DF93282F30E0F901EE5EFC4F4E
:100430008491F901E250FD4FD491F901E651FD4F4D
:10044000C491CC23A9F0162F81110E94BE01EC2F7C
:10045000F0E0EE0FFF1FEA52FD4FA591B4918FB768
:10046000F894EC91111108C0D095DE23DC938FBF76
:10047000DF91CF911F910895DE2BF8CFCF93DF93BB
:1004800090E0FC01E250FD4F249186519D4FFC010C
:1004900084918823C9F090E0880F991FFC01E453F0
:1004A000FD4FA591B491FC01EA52FD4FC591D49145
:1004B00061110DC09FB7F8948C91209582238C9385
:1004C0008881282328839FBFDF91CF9108956230D0
:1004D00051F49FB7F8943C91822F809583238C939D
:1004E000E8812E2BEFCF8FB7F894EC912E2B2C9325
:1004F0008FBFEACF8E50806480937C0080917A0019
:10050000806480937A0080917A0086FDFCCF809190
:1005100078009091790008953FB7F89480917C011C
:1005200090917D01A0917E01B0917F0126B5A89B9D
:1005300005C02F3F19F00196A11DB11D3FBFBA2F75
:10054000A92F982F8827BC01CD01620F711D811D35
:10055000911D42E0660F771F881F991F4A95D1F7BA
:1005600008958F929F92AF92BF92CF92DF92EF92B7
:10057000FF924B015C010E948C026B017C010E9486
:100580008C026C197D098E099F09683E73408105B4
:100590009105A8F321E0821A9108A108B10888EE1C
:1005A000C80E83E0D81EE11CF11C81149104A10443
:1005B000B10429F7FF90EF90DF90CF90BF90AF90FC
:1005C0009F908F9008950895AF92BF92CF92DF923F
:1005D000EF92FF920F931F93CF93DF936C017B01F8
:1005E0008B01040F151FEB015E01AE18BF08C01789
:1005F000D10759F06991D601ED91FC910190F081FC
:10060000E02DC6010995892B79F7C501DF91CF91BE
:100610001F910F91FF90EF90DF90CF90BF90AF9020
:100620000895FC01538D448D252F30E0842F90E0F8
:10063000821B930B541710F0CF96089501970895DD
:10064000FC01918D828D981761F0A28DAE0FBF2FA6
:10065000B11D5D968C91928D9F5F9F73928F90E0FC
:1006600008958FEF9FEF0895FC01918D828D98176B
:1006700031F0828DE80FF11D858D90E008958FEFA8
:100680009FEF0895FC01918D228D892F90E0805C71
:100690009F4F821B91098F739927089580E891E0FD
:1006A0000E94420321E0892B09F420E0822F089563
:1006B00080E090E0892B29F00E944E0381110C9478
:1006C00000000895FC01A48DA80FB92FB11DA35AF5
:1006D000BF4F2C91848D90E001968F739927848F62
:1006E000A689B7892C93A089B1898C918370806485
:1006F0008C93938D848D981306C00288F389E02D26
:1007000080818F7D80830895EF92FF920F931F93D6
:10071000CF93DF93EC0181E0888F9B8D8C8D9813B4
:100720001AC0E889F989808185FF15C09FB7F894C0
:10073000EE89FF896083E889F9898081837080640C
:1007400080839FBF81E090E0DF91CF911F910F9157
:10075000FF90EF900895F62E0B8D10E00F5F1F4F66
:100760000F731127E02E8C8D8E110CC00FB607FC75
:10077000FACFE889F989808185FFF5CFCE010E9403
:100780006203F1CFEB8DEC0FFD2FF11DE35AFF4F0C
:10079000F0829FB7F8940B8FEA89FB898081806291
:1007A000CFCF0F931F93CF93DF938C01D0E0C0E0A6
:1007B000F801EC0FFD1F6491662341F080E891E0A1
:1007C0000E948403892B11F02196F2CFCE01DF9194
:1007D000CF911F910F910895CF93DF93EC01888DF6
:1007E0008823B9F0AA89BB89E889F9898C9185FDAC
:1007F00003C0808186FD0DC00FB607FCF7CF8C913A
:1008000085FFF2CF808185FFEDCFCE010E9462038C
:10081000E9CFDF91CF9108950F931F93CF93DF938B
:100820008C01D0E0C0E061E08DE00E94100264E63F
:1008300070E080E090E00E94B10260E08DE00E94F4
:10084000100264E670E080E090E00E94B102219620
:100850000C171D0741F7DF91CF911F910F9108955C
:1008600080910401909105018230910538F0880F44
:10087000991F880F991F05970197F1F761E087E0AD
:100880000E94100283E290E00197F1F760E087E0B8
:100890000C941002FC0101900020E9F73197AF01A0
:1008A000481B590BBC0180E891E00C94E402CF9303
:1008B000DF930E94D103EC0188E291E00E944A0498
:1008C0008C0F9D1FDF91CF9108952091730130917E
:1008D00074012817390709F451C030936801209337
:1008E000670190937401809373012FB7F8948091FE
:1008F000780190917901A0917A01B0917B012FBF8D
:100900008093690190936A01A0936B01B0936C018D
:1009100083E790E00E94D10380917301909174016C
:100920008430910528F5880F991FFC01E85FFE4F80
:1009300080819181009711F00E944A048AE690E03C
:100940000E94D103809167019091680184309105E4
:1009500090F4880F991FFC01E85FFE4F8081918120
:10096000009711F00E944A0488E690E00C94570426
:100970008BE291E0E1CF8BE291E0F4CF08958F928A
:100980009F92AF92BF92CF92DF92EF92FF920F931E
:100990001F93CF93DF93CDB7DEB7A1970FB6F8942F
:1009A000DEBF0FBECDBF6C01990FEE08FF08F7FE4A
:1009B00041C06DE280E891E00E9484038C0122270F
:1009C0003327A9012C193D094E095F0919A2CE014F
:1009D00081967C019AE0892E912CA12CB12CCA0120
:1009E000B901A50194010E94300A605DF70162938C
:1009F0007F01211531054105510589F790E080E01F
:100A0000309719F0CF010E944A04800F911FA196E0
:100A10000FB6F894DEBF0FBECDBFDF91CF911F910F
:100A20000F91FF90EF90DF90CF90BF90AF909F908D
:100A30008F900895A701960119A28E010F5D1F4F97
:100A40008AE0C82ED12CE12CF12CCA01B901A701F2
:100A500096010E94300A605DF80162938F012115B2
:100A600031054105510589F790E080E0309779F232
:100A7000CF010E944A04CBCFFF920F931F93CF93D5
:100A8000DF93EC018B01FB01F0800E94E809F8166E
:100A900021F06F2DCE010E94F009F801F18021961E
:100AA000CE010E94E809F81621F06F2DCE010E94B8
:100AB000F009C801DF91CF911F910F91FF90089528
:100AC0005F926F927F928F929F92AF92BF92CF92DE
:100AD000DF92EF92FF920F931F93CF93DF938FB725
:100AE000F8948090780190907901A0907A01B0906C
:100AF0007B018FBF92E2692E91E0792E25E5E22EEF
:100B000021E0F22E02E511E0D12CC12C55245394A2
:100B1000F3018081F2E06F0E711C0E94E701F70182
:100B20004081518162817381E6012196892B09F010
:100B300080C0452B462B472B31F480829182A282C4
:100B4000B382F8011082F8018081811159C0F70148
:100B500080819181A281B381A5019401281B390B69
:100B60004A0B5B0BDA01C901893B9B40A105B1052A
:100B700008F446C086EF90E00E94D103CE010E94A7
:100B8000BF0489ED90E00E945704BE01660F771FF5
:100B90006B0142E0C41AD108F601EF59FE4F809173
:100BA0006D0190916E01811554E0950714F08FEF5F
:100BB00093E097FF02C090E080E091838083615AC8
:100BC0007E4FC6010E943C0589E990E00E94D10356
:100BD000CE010E94BF0485E890E00E94D103F60197
:100BE000EF59FE4F808191810E94BF0488E291E01D
:100BF0000E944A0485E090E00E940C04F8015082B3
:100C0000F4E0EF0EF11C0F5F1F4F6E01239709F008
:100C10007FCFDF91CF911F910F91FF90EF90DF90E9
:100C2000CF90BF90AF909F908F907F906F905F908C
:100C30000895452B462B472B19F3F801808181112C
:100C400016C08BEB90E00E94D103CE010E94BF043E
:100C500088EA90E00E945704D0920701C0920601F2
:100C600082E090E00E946504CE010E940C04F7012E
:100C70001082118212821382C3CF1F920F920FB67D
:100C80000F9211242F933F938F939F93AF93BF9312
:100C90008091780190917901A0917A01B0917B01C6
:100CA0003091770123E0230F2D3758F50196A11DD0
:100CB000B11D209377018093780190937901A093DF
:100CC0007A01B0937B0180917C0190917D01A0918C
:100CD0007E01B0917F010196A11DB11D80937C0121
:100CE00090937D01A0937E01B0937F01BF91AF915E
:100CF0009F918F913F912F910F900FBE0F901F905A
:100D0000189526E8230F0296A11DB11DD2CF1F9280
:100D10000F920FB60F9211242F933F934F935F932F
:100D20006F937F938F939F93AF93BF93EF93FF93B3
:100D3000E0910201F09103010995FF91EF91BF91BC
:100D4000AF919F918F917F916F915F914F913F9163
:100D50002F910F900FBE0F901F9018951F920F921A
:100D60000FB60F9211242F933F934F935F936F937E
:100D70007F938F939F93AF93BF93EF93FF93E091F4
:100D80000001F09101010995FF91EF91BF91AF91A1
:100D90009F918F917F916F915F914F913F912F9193
:100DA0000F900FBE0F901F9018951F920F920FB6C5
:100DB0000F9211242F933F934F935F936F937F93E1
:100DC0008F939F93AF93BF93EF93FF9380E891E04E
:100DD0000E946203FF91EF91BF91AF919F918F911C
:100DE0007F916F915F914F913F912F910F900FBE27
:100DF0000F901F9018951F920F920FB60F9211240B
:100E00002F938F939F93EF93FF93E0919001F09135
:100E100091018081E0919601F091970182FD1BC0C4
:100E20009081809199018F5F8F7320919A01821731
:100E300041F0E0919901F0E0E058FE4F958F8093EA
:100E40009901FF91EF919F918F912F910F900FBE7C
:100E50000F901F9018958081F4CF789484B58260AC
:100E600084BD84B5816084BD85B5826085BD85B54E
:100E7000816085BD80916E00816080936E001092CC
:100E80008100809181008260809381008091810047
:100E900081608093810080918000816080938000D8
:100EA0008091B10084608093B1008091B000816036
:100EB0008093B00080917A00846080937A00809162
:100EC0007A00826080937A0080917A0081608093BA
:100ED0007A0080917A00806880937A001092C10035
:100EE000E0919001F091910182E08083E0918C018A
:100EF000F0918D011082E0918E01F0918F018FECC5
:100F0000808310929801E0919401F091950186E020
:100F10008083E0919201F0919301808180618083D0
:100F2000E0919201F0919301808188608083E0914B
:100F30009201F0919301808180688083E091920119
:100F4000F091930180818F7D808384E092E00E9404
:100F500057048FED91E00E9457048CEB91E00E94C2
:100F6000570461E087E00E943E0260E087E00E9453
:100F7000100262E082E00E943E0260E08EE00E9489
:100F80003E0260E08FE00E943E0260E088E00E9446
:100F90003E0261E08DE00E943E0262E084E00E9439
:100FA0003E0262E085E00E943E0262E086E00E942E
:100FB0003E028EE00E947A02909376018093750142
:100FC00085E591E00E945704C1E6D1E0F12CE12CC7
:100FD00010E000E064E6862E912CC12C72E0D72E42
:100FE000AA24AA94E3E0BE2EC7010E94E8098883E0
:100FF000C70101960E94E80989830F5F1F4F88810E
:1010000099818115944008F48BC088E491E00E9496
:10101000D103C8010E94BF048AE291E00E945704F4
:10102000C801019709F070C0B0926201A0926101FD
:10103000BE01C7010E943C0532E0E30EF11C22967E
:101040000330110589F680E394E0909301018093C9
:10105000000180916900836080936900E89A82E9C9
:1010600091E00E9457048FE691E00E9457042FB749
:10107000F8948091780190917901A0917A01B091D2
:101080007B012FBF8093690190936A01A0936B014C
:10109000B0936C0135EC832E33E0932EA12CB12C50
:1010A00044244A9443E0542E612C712C22242A9427
:1010B000322C8FB7F894C0907801D0907901E090ED
:1010C0007A01F0907B018FBF8EE00E947A028C0142
:1010D00088E00E94E701EC01809175019091760112
:1010E0009801281B390BC90137FF03C091958195E1
:1010F00091090B974CF1109376010093750181E0F3
:1011000090E00E94650435C0019729F4D0926401F3
:10111000C09263018DCF909266018092650188CF65
:101120008DE191E00E94D103C8010E94BF0483E1D8
:1011300091E00E94D103888199810E94BF0488E2D6
:1011400091E00E944A0478CFC130D10591F480919A
:101150007301909174018130910559F0039709F062
:101160004EC0C0926F01D0927001E0927101F09276
:10117000720180917301909174018130910509F49D
:101180005FC008F43FC08230910509F4B9C00397ED
:1011900009F47BC020916D0130916E0137FDE7C0ED
:1011A000211584E0380714F02FEF33E0032E000CF4
:1011B000440B550BACE9B6EE0E942B0AA301920139
:1011C0000E94FE09205C304E4F4F5F4FF8943093E1
:1011D000050120930401789464E170E080E090E0E0
:1011E0000E94B10220E030E0232B09F462CF0E947C
:1011F0004E03882309F45DCF0E9400005ACF83E09C
:1012000090E07FCF8FE00E947A029C01990F440BFF
:10121000550B2A50310941095109A1E0BCEF0E9448
:101220002B0AA50194010E94FE0921503C4F4F4F0B
:101230005F4F30936E0120936D010E946005AACF2D
:10124000809175019091760190936E0180936D016C
:101250008091690190916A01A0916B01B0916C013C
:10126000C81AD90AEA0AFB0A31E1C31637E2D306E3
:10127000E104F10408F48ECF8BE992E00E94570458
:1012800090E080E00E94650485CF8FE00E947A02A2
:101290009C01990F440B550B2A5031094109510902
:1012A000A1E0BCEF0E942B0AA50194010E94FE0957
:1012B00021503C4F4F4F5F4F30936E0120936D0193
:1012C000219709F467CF80916F0190917001A091EF
:1012D0007101B0917201C81AD90AEA0AFB0A81E6C3
:1012E000C8168AEED806E104F10408F453CF81E66B
:1012F00092E00E9457048091670190916801C2CFEB
:1013000080910601909107018F3F980759F0880F4F
:10131000991FFC01EF59FE4F8081918190936E01DE
:1013200080936D010E9460058091690190916A012E
:10133000A0916B01B0916C01C81AD90AEA0AFB0AA4
:1013400031E3C31635E7D306E104F10408F422CFF4
:1013500088E292E00E9457048091670190916801B1
:101360000E946504309207012092060113CF20E00D
:1013700030E0A9011FCFE0E8F1E01382128288EE8D
:1013800093E0A0E0B0E084839583A683B78384E1F3
:1013900091E09183808385EC90E09587848784EC4D
:1013A00090E09787868780EC90E0918B808B81EC32
:1013B00090E0938B828B82EC90E0958B848B86EC13
:1013C00090E0978B868B118E128E138E148E08955B
:1013D000F999FECF92BD81BDF89A992780B50895FD
:1013E000262FF999FECF1FBA92BD81BD20BD0FB641
:1013F000F894FA9AF99A0FBE01960895052E97FB74
:101400001EF400940E94150A57FD07D00E94300A6E
:1014100007FC03D04EF40C94150A50954095309576
:1014200021953F4F4F4F5F4F089590958095709550
:1014300061957F4F8F4F9F4F08950E94520AA59F3D
:10144000900DB49F900DA49F800D911D11240895BF
:10145000B7FF0C941D0A0E941D0A821B930B08956E
:10146000A1E21A2EAA1BBB1BFD010DC0AA1FBB1FA8
:10147000EE1FFF1FA217B307E407F50720F0A21B1A
:10148000B30BE40BF50B661F771F881F991F1A9487
:1014900069F760957095809590959B01AC01BD01B1
:1014A000CF010895A29FB001B39FC001A39F700D0B
:1014B000811D1124911DB29F700D811D1124911D5C
:1014C0000895EE0FFF1F0590F491E02D0994F89414
:1014D000FFCFE302E302401FFFFF33013E0145015E
:1014E0004B01000000008403E4021103EC034203FB
:1014F000200334030400050006000D0A00554E4B7E
:101500004E4F574E004155544F20284C445229000D
:101510004D414E55414C005343454E45004D4F54AF
:04152000494F4E00E1
:107E0000112484B714BE81FFF0D085E080938100F7
:107E100082E08093C00088E18093C10086E0809377
:107E2000C20080E18093C4008EE0C9D0259A86E02C
:107E300020E33CEF91E0309385002093840096BBD3
:107E4000B09BFECF1D9AA8958150A9F7CC24DD24C4
:107E500088248394B5E0AB2EA1E19A2EF3E0BF2EE7
:107E6000A2D0813461F49FD0082FAFD0023811F036
:107E7000013811F484E001C083E08DD089C08234E0
:107E800011F484E103C0853419F485E0A6D080C0E4
:107E9000853579F488D0E82EFF2485D0082F10E0AE
:107EA000102F00270E291F29000F111F8ED06801E7
:107EB0006FC0863521F484E090D080E0DECF843638
:107EC00009F040C070D06FD0082F6DD080E0C81688
:107ED00080E7D80618F4F601B7BEE895C0E0D1E017
:107EE00062D089930C17E1F7F0E0CF16F0E7DF06D8
:107EF00018F0F601B7BEE89568D007B600FCFDCFD4
:107F0000A601A0E0B1E02C9130E011968C91119780
:107F100090E0982F8827822B932B1296FA010C0160
:107F200087BEE89511244E5F5F4FF1E0A038BF0790
:107F300051F7F601A7BEE89507B600FCFDCF97BE46
:107F4000E89526C08437B1F42ED02DD0F82E2BD052
:107F50003CD0F601EF2C8F010F5F1F4F84911BD097
:107F6000EA94F801C1F70894C11CD11CFA94CF0C13
:107F7000D11C0EC0853739F428D08EE10CD085E9AC
:107F80000AD08FE07ACF813511F488E018D01DD067
:107F900080E101D065CF982F8091C00085FFFCCF94
:107FA0009093C60008958091C00087FFFCCF809118
:107FB000C00084FD01C0A8958091C6000895E0E648
:107FC000F0E098E1908380830895EDDF803219F02E
:107FD00088E0F5DFFFCF84E1DECF1F93182FE3DFCA
:107FE0001150E9F7F2DF1F91089580E0E8DFEE27F6
:047FF000FF270994CA
:027FFE00040479
:00000001FF
