:020000040000FA
:100000000C94E9010C94C3050C949C050C9411020A
:100010000C9411020C9411020C9411020C94110214
:100020000C9411020C9411020C9411020C94110204
:100030000C9411020C9411020C9411020C941102F4
:100040000C9452050C9411020C9410060C94EA05C1
:100050000C9411020C9411020C9411020C941102D4
:100060000C9411020C941102206C6F616465642081
:10007000776974682076616C75653A200020202DC0
:100080003E205363656E6520002056616C75653AAD
:10009000200020697320696E76616C69642F756E2B
:1000A000696E697469616C697A65642E2053657440
:1000B00074696E6720746F2064656661756C742E58
:1000C0000020202D3E205363656E6520004545507D
:1000D000524F4D3A204C6F6164696E6720736365BF
:1000E0006E65732E2E2E002D2D2D2D2D2D2D2D2DAB
:1000F0002D2D2D2D2D2D2D2D2D2D2D2D2D2D2D2D30
:100100002D2D2D2D2D2D2D2D2D000A53657475703F
:1001100020436F6D706C6574652E20496E6974693B
:10012000616C204D6F64653A204155544F20284C36
:10013000445229002D2D2D20456E64206F662043EA
:100140006F6E66696775726174696F6E202D2D2DF3
:100150000A00496E697469616C20506F74656E7431
:10016000696F6D657465722056616C75653A200023
:100170004143204672657175656E63793A20000AC5
:100180002D2D2D20436F6E66696775726174696FDE
:100190006E202D2D2D002D2D2D2D2D2D2D2D2D2D88
:1001A0002D2D2D2D2D2D2D2D2D2D2D2D2D2D2D2D7F
:1001B0002D2D2D2D2D2D2D2D0041432044696D6DAC
:1001C00065722077697468205363656E6520436F9C
:1001D0006E74726F6C202D20496E697469616C6950
:1001E0007A696E672E2E2E000A2D2D2D2D2D2D2D88
:1001F0002D2D2D2D2D2D2D2D2D2D2D2D2D2D2D2D2F
:100200002D2D2D2D2D2D2D2D2D2D2D0000000000FF
:1002100023002600290020736176656420776974C5
:10022000682076616C75653A2000454550524F4D07
:100230003A205363656E65200054494D454F55542F
:100240003A205363656E65206D6F64652065787034
:10025000697265642E20526576657274696E6720D6
:10026000746F2070726576696F7573206D6F646549
:100270003A200054494D454F55543A204D616E7512
:10028000616C206D6F646520657870697265642E9D
:1002900020526576657274696E6720746F204155CF
:1002A000544F206D6F64652E205761733A200053C0
:1002B000544154455F4348414E47453A20506F747E
:1002C000656E74696F6D65746572206D6F766564B7
:1002D0002E204F766572726964696E6720746F2094
:1002E0004D414E55414C206D6F64652E2046726F16
:1002F0006D3A20002E20526563616C6C696E672038
:100300007363656E652E00414354494F4E3A205346
:10031000686F7274207072657373206F6E206275DF
:1003200074746F6E20002E20536176696E672063AF
:10033000757272656E7420737461746520617320C8
:1003400061207363656E652E00414354494F4E3AF8
:10035000204C6F6E67207072657373206F6E206221
:100360007574746F6E200020707265737365642EEF
:10037000004556454E543A20427574746F6E200005
:1003800000000000240027002A00000000002500D3
:1003900028002B00040404040404040402020202E2
:1003A0000202030303030303010204081020408038
:1003B00001020408102001020408102000000008B7
:1003C000000201000003040700000000000000001C
:1003D000C50911241FBECFEFD8E0DEBFCDBF11E0AD
:1003E000A0E0B1E0E6EEF4E102C005900D92AA347F
:1003F000B107D9F722E0AAE4B1E001C01D92A5310E
:10040000B207E1F711E0C9EED1E004C02197FE0187
:100410000E946B0AC83ED107C9F70E9442060C949D
:10042000710A0C940000833081F028F4813099F037
:100430008230A9F008958730A9F08830C9F084305F
:10044000B1F4809180008F7D03C0809180008F7710
:1004500080938000089584B58F7784BD089584B516
:100460008F7DFBCF8091B0008F778093B00008958F
:100470008091B0008F7DF9CF1F93CF93DF93282F0A
:1004800030E0F901E454FC4F8491F901E855FC4F48
:10049000D491F901EC56FC4FC491CC23A9F0162F4E
:1004A00081110E941302EC2FF0E0EE0FFF1FE657C0
:1004B000FC4FA591B4918FB7F894EC91111108C03D
:1004C000D095DE23DC938FBFDF91CF911F910895EC
:1004D000DE2BF8CFCF93DF9390E0FC01E855FC4F83
:1004E00024918C569C4FFC0184918823C9F090E0A4
:1004F000880F991FFC01E058FC4FA591B491FC01B5
:10050000E657FC4FC591D49161110DC09FB7F89487
:100510008C91209582238C938881282328839FBFE8
:10052000DF91CF910895623051F49FB7F8943C91D8
:10053000822F809583238C93E8812E2BEFCF8FB76A
:10054000F894EC912E2B2C938FBFEACF8E508064C1
:1005500080937C0080917A00806480937A008091FF
:100560007A0086FDFCCF8091780090917900089503
:100570003FB7F8948091740190917501A091760134
:10058000B091770126B5A89B05C02F3F19F00196C1
:10059000A11DB11D3FBFBA2FA92F982F8827BC01DD
:1005A000CD01620F711D811D911D42E0660F771F05
:1005B000881F991F4A95D1F708958F929F92AF9205
:1005C000BF92CF92DF92EF92FF924B015C010E94AB
:1005D000B8026B017C010E94B8026C197D098E097A
:1005E0009F09683E734081059105A8F321E0821AB6
:1005F0009108A108B10888EEC80E83E0D81EE11C5E
:10060000F11C81149104A104B10429F7FF90EF902B
:10061000DF90CF90BF90AF909F908F9008950895F6
:10062000AF92BF92CF92DF92EF92FF920F931F9300
:10063000CF93DF936C017B018B01040F151FEB013E
:100640005E01AE18BF08C017D10759F06991D601F5
:10065000ED91FC910190F081E02DC6010995892B67
:1006600079F7C501DF91CF911F910F91FF90EF9026
:10067000DF90CF90BF90AF900895FC01538D448DD3
:10068000252F30E0842F90E0821B930B541710F03D
:10069000CF96089501970895FC01918D828D98174A
:1006A00061F0A28DAE0FBF2FB11D5D968C91928D22
:1006B0009F5F9F73928F90E008958FEF9FEF089553
:1006C000FC01918D828D981731F0828DE80FF11D1C
:1006D000858D90E008958FEF9FEF0895FC01918D37
:1006E000228D892F90E0805C9F4F821B91098F7330
:1006F0009927089588E791E00E946E0321E0892BF5
:1007000009F420E0822F089580E090E0892B29F001
:100710000E947A0381110C9400000895FC01A48DBD
:10072000A80FB92FB11DA35ABF4F2C91848D90E013
:1007300001968F739927848FA689B7892C93A089F6
:10074000B1898C91837080648C93938D848D981380
:1007500006C00288F389E02D80818F7D8083089513
:10076000EF92FF920F931F93CF93DF93EC0181E001
:10077000888F9B8D8C8D98131AC0E889F9898081A8
:1007800085FF15C09FB7F894EE89FF896083E889DB
:10079000F98980818370806480839FBF81E090E0CD
:1007A000DF91CF911F910F91FF90EF900895F62E5A
:1007B0000B8D10E00F5F1F4F0F731127E02E8C8DF4
:1007C0008E110CC00FB607FCFACFE889F989808139
:1007D00085FFF5CFCE010E948E03F1CFEB8DEC0F9C
:1007E000FD2FF11DE35AFF4FF0829FB7F8940B8F56
:1007F000EA89FB8980818062CFCF0F931F93CF93CB
:10080000DF938C01D0E0C0E0F801EC0FFD1F649194
:10081000662341F088E791E00E94B003892B11F034
:100820002196F2CFCE01DF91CF911F910F910895C4
:10083000CF93DF93EC01888D8823B9F0AA89BB8917
:10084000E889F9898C9185FD03C0808186FD0DC002
:100850000FB607FCF7CF8C9185FFF2CF808185FF23
:10086000EDCFCE010E948E03E9CFDF91CF910895A5
:100870000F931F93CF93DF938C01D0E0C0E061E032
:100880008DE00E943C0264E670E080E090E00E940F
:10089000DD0260E08DE00E943C0264E670E080E0F2
:1008A00090E00E94DD0221960C171D0741F7DF91B1
:1008B000CF911F910F9108958091040190910501AE
:1008C0008230910538F0880F991F880F991F05977E
:1008D0000197F1F761E087E00E943C0283E290E03B
:1008E0000197F1F760E087E00C943C02FC01019075
:1008F0000020E9F73197AF01481B590BBC0188E78D
:1009000091E00C941003CF93DF930E94FD03EC0160
:1009100086E291E00E9476048C0F9D1FDF91CF91BB
:100920000895CF93DF93D0E0C0E0009719F00E94C4
:100930007604EC0186E291E00E9476048C0F9D1F04
:10094000DF91CF9108958F929F92AF92BF92CF92F5
:10095000DF92EF92FF920F931F93CF93DF93CDB768
:10096000DEB7A1970FB6F894DEBF0FBECDBF6C0106
:10097000990FEE08FF08F7FE41C06DE288E791E0AD
:100980000E94B0038C0122273327A9012C193D09AD
:100990004E095F0919A2CE0181967C019AE0892E49
:1009A000912CA12CB12CCA01B901A50194010E947E
:1009B0003A0A605DF70162937F0121153105410517
:1009C000510589F790E080E0309719F0CF010E943F
:1009D0007604800F911FA1960FB6F894DEBF0FBE6C
:1009E000CDBFDF91CF911F910F91FF90EF90DF90DE
:1009F000CF90BF90AF909F908F900895A7019601E0
:100A000019A28E010F5D1F4F8AE0C82ED12CE12C58
:100A1000F12CCA01B901A70196010E943A0A605D52
:100A2000F80162938F01211531054105510589F7C0
:100A300090E080E0309779F2CF010E947604CBCF2E
:100A4000CF93DF930E94A304EC0186E291E00E9421
:100A500076048C0F9D1FDF91CF910895FF920F9325
:100A60001F93CF93DF93EC018B01FB01F0800E9479
:100A7000F209F81621F06F2DCE010E94FA09F80153
:100A8000F1802196CE010E94F209F81621F06F2D17
:100A9000CE010E94FA09C801DF91CF911F910F91F9
:100AA000FF9008951F920F920FB60F9211242F936B
:100AB0003F938F939F93AF93BF93809170019091D9
:100AC0007101A0917201B091730130916F0123E027
:100AD000230F2D3758F50196A11DB11D20936F01ED
:100AE0008093700190937101A0937201B093730190
:100AF0008091740190917501A0917601B091770178
:100B00000196A11DB11D8093740190937501A0936E
:100B10007601B0937701BF91AF919F918F913F91F3
:100B20002F910F900FBE0F901F90189526E8230F5E
:100B30000296A11DB11DD2CF1F920F920FB60F9238
:100B400011242F933F934F935F936F937F938F93D2
:100B50009F93AF93BF93EF93FF93E0910201F091C6
:100B600003010995FF91EF91BF91AF919F918F91F3
:100B70007F916F915F914F913F912F910F900FBE99
:100B80000F901F9018951F920F920FB60F9211247D
:100B90002F933F934F935F936F937F938F939F9385
:100BA000AF93BF93EF93FF93E0910001F0910101A8
:100BB0000995FF91EF91BF91AF919F918F917F9197
:100BC0006F915F914F913F912F910F900FBE0F90BA
:100BD0001F9018951F920F920FB60F9211242F930A
:100BE0003F934F935F936F937F938F939F93AF93B5
:100BF000BF93EF93FF9388E791E00E948E03FF91EC
:100C0000EF91BF91AF919F918F917F916F915F9184
:100C10004F913F912F910F900FBE0F901F901895FD
:100C20001F920F920FB60F9211242F938F939F93C1
:100C3000EF93FF93E0918801F09189018081E09129
:100C40008E01F0918F0182FD1BC0908180919101F6
:100C50008F5F8F7320919201821741F0E091910193
:100C6000F0E0E858FE4F958F80939101FF91EF914E
:100C70009F918F912F910F900FBE0F901F901895FD
:100C80008081F4CFCF93DF9300D000D0CDB7DEB713
:100C9000789484B5826084BD84B5816084BD85B557
:100CA000826085BD85B5816085BD80916E00816063
:100CB00080936E0010928100809181008260809309
:100CC000810080918100816080938100809180000B
:100CD0008160809380008091B10084608093B10036
:100CE0008091B00081608093B00080917A00846030
:100CF00080937A0080917A00826080937A0080915C
:100D00007A00816080937A0080917A008068809375
:100D10007A001092C100E0918801F091890182E08F
:100D20008083E0918401F09185011082E091860139
:100D3000F09187018FEC808310929001E0918C01FB
:100D4000F0918D0186E08083E0918A01F0918B0122
:100D5000808180618083E0918A01F0918B018081A4
:100D600088608083E0918A01F0918B0180818068A6
:100D70008083E0918A01F0918B0180818F7D808357
:100D800088EE91E00E94830489EB91E00E94830445
:100D900086E991E00E94830461E087E00E946A0294
:100DA00060E087E00E943C0262E082E00E946A020A
:100DB00060E08EE00E946A0260E08FE00E946A02BA
:100DC00061E08DE00E946A0262E084E00E946A02B3
:100DD00062E085E00E946A0262E086E00E946A02A8
:100DE0008EE00E94A60290935501809354018FE7F4
:100DF00091E00E94830480E791E00E94FD0382E37A
:100E000090E00E94200582E591E00E94FD03809120
:100E10005401909155010E94200584E391E00E94C5
:100E200083048DEC90E00E9483042AE431E03A834D
:100E30002983F12CE12C10E000E0F4E68F2E912CB8
:100E4000C12CA2E0DA2EAA24AA94B3E0BB2EC701DB
:100E50000E94F209E981FA818083C70101960E940C
:100E6000F209E981FA8181830F5F1F4F80819181AF
:100E70008115944008F499C181EC90E00E94FD0333
:100E8000C8010E94A30482E990E00E94FD03C8010A
:100E9000019709F07EC1B0924B01A0924A0169818D
:100EA0007A81C7010E942E0589E890E00E94FD0327
:100EB000E981FA81808191810E942005F2E0EF0EA4
:100EC000F11C29813A812E5F3F4F3A8329830330F9
:100ED000110509F0BCCF8CE594E09093010180935B
:100EE000000180916900836080936900E89A8AE03C
:100EF00091E00E94830487EE90E00E948304E5EC79
:100F00002E2EE3E03E2E412C512C8FB7F894C0904A
:100F10007001D0907101E0907201F09073018FBF69
:100F200040E251E05A83498303E611E070E6872EE0
:100F300071E0972E1C821B82E981FA812191319107
:100F4000FA83E9833327F901E454FC4F8491F901D2
:100F5000E855FC4F7490F901EC56FC4F64902B81DE
:100F60003C812F5F3F4F5901662009F428C1811150
:100F70000E941302E62DF0E0EE0FFF1FE45FFD4F2D
:100F8000A591B4912C91F80180819181A281B381C6
:100F9000722209F414C1892B8A2B8B2B09F082C190
:100FA000BC82AB820C5F1F4FFFEF8F1A9F0A950127
:100FB0002330310509F0C0CF8EE00E94A6028C01DB
:100FC0008091540190915501A801481B590BCA0109
:100FD00057FF03C09195819591090B979CF18091E2
:100FE0005C0190915D019A838983019799F08FEA62
:100FF00092E00E94FD03E981FA8189E291E0E33009
:10100000F10530F4EE0FFF1FE65EFE4F8081918107
:101010000E94910421E030E030935D0120935C0157
:10102000C0925001D0925101E0925201F0925301CE
:1010300010935501009354014FEF5FEF5093070158
:101040004093060180915C0190915D01019709F543
:101050008091500190915101A0915201B0915301A2
:10106000A7019601281B390B4A0B5B0BDA01C9015A
:1010700081319742A105B10560F083E792E00E94BB
:10108000FD0381E391E00E94910410925D011092B2
:101090005C0180915C0190915D010297B1F58091B6
:1010A000560190915701A0915801B0915901C81A69
:1010B000D90AEA0AFB0A41E3C41645E7D406E1046B
:1010C000F10418F189E392E00E94FD0380915A0136
:1010D00090915B018330910508F01BC1880F991F27
:1010E000FC01E65EFE4F808191810E949104809117
:1010F0005A0190915B0190935D0180935C018FEFA9
:101100009FEF909307018093060180915C0190917D
:101110005D018130910509F4FFC008F416C1029702
:1011200009F403C120915E0130915F0137FD29C1AF
:101130002115F4E03F0714F02FEF33E0032E000CED
:10114000440B550BACE9B6EE0E94350A2FEF33E0A5
:1011500040E050E00E94080A205C304E4F4F5F4F45
:10116000F8943093050120930401789464E170E0D1
:1011700080E090E00E94DD0220E030E0232B09F4C3
:10118000C4CE0E947A03882309F4BFCE0E940000D7
:10119000BCCE019729F4D0924D01C0924C017FCE74
:1011A00090924F0180924E017ACE8DE790E00E949E
:1011B000FD03C8010E94A30488E690E077CEF80101
:1011C00080819181A281B381892B8A2B8B2B89F419
:1011D000C082D182E282F382F401108281E793E03F
:1011E0000E94FD03C5010E94A30487E693E00E94CC
:1011F0008304F40180818111D3CEF8018081918133
:10120000A281B381A7019601281B390B4A0B5B0B06
:10121000DA01C901893B9B40A105B10508F4C0CEA4
:1012200089E493E00E94FD03C5010E94A30486E2C5
:1012300093E00E9483048B819C81880F991FAC01ED
:10124000465B5E4F5C834B8320915E0130915F0172
:10125000211554E0350714F02FEF33E037FF02C0BB
:1012600030E020E0EB81FC8131832083BF010E94CC
:101270002E058AE292E00E94FD03C5010E94A304AC
:1012800086E192E00E94FD03EB81FC8180819181E7
:101290000E94200585E090E00E94380421E0F401DE
:1012A00020837ECEF401808181112DC087E093E000
:1012B0000E94FD03C5010E94A30484EF92E00E94F6
:1012C000830480915C0190915D018230910521F051
:1012D00090935B0180935A0122E030E030935D01EE
:1012E00020935C014B815C81509307014093060180
:1012F000C0925601D0925701E0925801F0925901E4
:10130000C5010E943804F8011082118212821382F2
:1013100047CE89E291E0E9CE809154019091550148
:1013200090935F0180935E01FDCE809106019091C4
:1013300007018F3F980709F4F5CE880F991FFC012C
:10134000E65BFE4F80819181EBCF8FE00E94A60289
:101350009C01990F440B550B2A5031094109510941
:10136000A1E0BCEF0E94350AA20191010E94080A87
:1013700021503C4F4F4F5F4F30935F0120935E01F0
:10138000D1CE20E030E0A901DDCEE8E7F1E0138224
:10139000128288EE93E0A0E0B0E084839583A68378
:1013A000B7838CE091E09183808385EC90E0958712
:1013B000848784EC90E09787868780EC90E0918B1F
:1013C000808B81EC90E0938B828B82EC90E0958B0C
:1013D000848B86EC90E0978B868B118E128E138E09
:1013E000148E0895F999FECF92BD81BDF89A992780
:1013F00080B50895262FF999FECF1FBA92BD81BD01
:1014000020BD0FB6F894FA9AF99A0FBE0196089586
:10141000052E97FB1EF400940E941F0A57FD07D06B
:101420000E943A0A07FC03D04EF40C941F0A509510
:101430004095309521953F4F4F4F5F4F08959095C0
:101440008095709561957F4F8F4F9F4F08950E94B3
:101450005C0AA59F900DB49F900DA49F800D911DD7
:1014600011240895B7FF0C94270A0E94270A821BB3
:10147000930B0895A1E21A2EAA1BBB1BFD010DC000
:10148000AA1FBB1FEE1FFF1FA217B307E407F50734
:1014900020F0A21BB30BE40BF50B661F771F881F10
:1014A000991F1A9469F760957095809590959B01A6
:1014B000AC01BD01CF010895A29FB001B39FC0014F
:1014C000A39F700D811D1124911DB29F700D811D70
:1014D0001124911D0895EE0FFF1F0590F491E02D4A
:1014E0000994F894FFCF0F030F03401FFFFF000084
:1014F0000000B00310033D0318046E034C036003A7
:101500003801310143010400050006000D0A0055B1
:101510004E4B4E4F574E004D414E55414C0041559C
:10152000544F20284C445229005343454E45000057
:107E0000112484B714BE81FFF0D085E080938100F7
:107E100082E08093C00088E18093C10086E0809377
:107E2000C20080E18093C4008EE0C9D0259A86E02C
:107E300020E33CEF91E0309385002093840096BBD3
:107E4000B09BFECF1D9AA8958150A9F7CC24DD24C4
:107E500088248394B5E0AB2EA1E19A2EF3E0BF2EE7
:107E6000A2D0813461F49FD0082FAFD0023811F036
:107E7000013811F484E001C083E08DD089C08234E0
:107E800011F484E103C0853419F485E0A6D080C0E4
:107E9000853579F488D0E82EFF2485D0082F10E0AE
:107EA000102F00270E291F29000F111F8ED06801E7
:107EB0006FC0863521F484E090D080E0DECF843638
:107EC00009F040C070D06FD0082F6DD080E0C81688
:107ED00080E7D80618F4F601B7BEE895C0E0D1E017
:107EE00062D089930C17E1F7F0E0CF16F0E7DF06D8
:107EF00018F0F601B7BEE89568D007B600FCFDCFD4
:107F0000A601A0E0B1E02C9130E011968C91119780
:107F100090E0982F8827822B932B1296FA010C0160
:107F200087BEE89511244E5F5F4FF1E0A038BF0790
:107F300051F7F601A7BEE89507B600FCFDCF97BE46
:107F4000E89526C08437B1F42ED02DD0F82E2BD052
:107F50003CD0F601EF2C8F010F5F1F4F84911BD097
:107F6000EA94F801C1F70894C11CD11CFA94CF0C13
:107F7000D11C0EC0853739F428D08EE10CD085E9AC
:107F80000AD08FE07ACF813511F488E018D01DD067
:107F900080E101D065CF982F8091C00085FFFCCF94
:107FA0009093C60008958091C00087FFFCCF809118
:107FB000C00084FD01C0A8958091C6000895E0E648
:107FC000F0E098E1908380830895EDDF803219F02E
:107FD00088E0F5DFFFCF84E1DECF1F93182FE3DFCA
:107FE0001150E9F7F2DF1F91089580E0E8DFEE27F6
:047FF000FF270994CA
:027FFE00040479
:00000001FF
